:020000040800F2
:10000000A01700209D020008595500085150000813
:100010005155000831160008E16700080000000093
:10002000000000000000000000000000B15F0008B8
:10003000691600080000000061550008B95F00085B
:10004000B7020008B7020008B7020008B7020008AC
:10005000B7020008B7020008B7020008B70200089C
:10006000B7020008B7020008B7020008B70200088C
:10007000B7020008B7020008B7020008B70200087C
:10008000B7020008B7020008B7020008B70200086C
:10009000B7020008B7020008B7020008B70200085C
:1000A000B7020008B7020008B7020008B70200084C
:1000B000B7020008B7020008B7020008B70200083C
:1000C000B7020008B7020008B7020008B70200082C
:1000D000B7020008B7020008B7020008B70200081C
:1000E00071160008B7020008B7020008B70200083E
:1000F000B7020008B7020008B7020008B7020008FC
:10010000B7020008F9560008B7020008B702000855
:10011000B7020008B7020008A1600008B16000083B
:10012000B7020008B7020008B70200084916000825
:10013000B7020008B7020008B7020008B7020008BB
:10014000B7020008B7020008B7020008B7020008AB
:10015000B702000859160008B7020008B7020008E5
:10016000B7020008B7020008B7020008B70200088B
:10017000B7020008B7020008B7020008000000003C
:10018000B7020008B7020008B7020008B70200086B
:10019000B7020008B7020008B7020008B70200085B
:1001A000B7020008B702000839160008B7020008B5
:1001B000B7020008B7020008B7020008B70200083B
:1001C000B7020008B702000800F002F800F057F884
:1001D00014A696E8000CB244B344DA4501D100F00D
:1001E0004EF8BAE80F000FA696E83000A5EB04051C
:1001F00004EB0607AAEB0704A7F101074FEA151560
:100200004FEA3414A4F10104AC4201D300F037F8F2
:1002100013F0010F18BFFB1A43F0010300F001F8BF
:10022000DBE7184744AC000064AC0000103A24BF80
:1002300078C878C1FAD8520724BF30C830C144BF4B
:1002400004680C6070470000704700000023002421
:1002500000250026103A28BF78C1FBD8520728BFD6
:1002600030C148BF0B607047642900F0EB8000206C
:1002700070471FB508F0F4FF1FBD10B510BD00F0AA
:100280008AFA1146FFF7F5FF07F0DAFF00F0A8FA47
:1002900003B4FFF7F2FF03BC00F0B0FA094880474F
:1002A00009480047FEE7FEE7FEE7FEE7FEE7FEE758
:1002B000FEE7FEE7FEE7FEE704480549054A064B70
:1002C0007047000089600008C9010008A0110020E3
:1002D000A0170020A0130020A013002053EA020C56
:1002E00000F069802DE9F04B4FF00006002B1FBF96
:1002F000B3FA83F503FA05F424FA05F65E4012BF5B
:100300001643B2FA82F502FA05F4C5F120051EBFC4
:1003100022FA05FC44EA0C04203556EA044C4FEA64
:10032000144418BF641C4FF000084FF000099042BD
:1003300071EB030C39D3002919BFB1FA81F701FA27
:1003400007F6B0FA80F700FA07F6C7F120071EBFDC
:1003500020FA07FC46EA0C062037B6FBF4FCA7EBB4
:100360000507103F07F01F0BCBF120062CFA06F60D
:100370000CFA0BFB44BFB3460026202FA4BF5E46F9
:100380004FF0000B5BEA060C08BF4FF0010B19EBB6
:100390000B0948EB0608ABFB027C06FB02CC0BFB0F
:1003A00003CCC01B71EB0C01C1E70B460246414672
:1003B0004846BDE8F08B13B5084318BF4FF0FF3037
:1003C0000146AFF30080BDE81C4070470FB41CB578
:1003D000074B06AA7B4469460090059800F0C3F9D4
:1003E0000020694600F0D2F91CBC5DF814FB000047
:1003F000B503000070B5044685690068C10601D5E3
:10040000302600E02026C00707D070BDD4E90121C6
:1004100030469047206A401C20626D1EF6D570BDA4
:1004200070B5044685690078C00707D170BDD4E96E
:10043000012120209047206A401C20626D1EF6D5C5
:1004400070BD00002DE9F0410646002410687529B2
:10045000314616A510D0AFF30080002802DA4042E2
:1004600013A507E031688A0701D512A502E0490704
:1004700004D511A5012401E0AFF3008000210A2278
:1004800006F1240709E0B0FBF2FCB0FBF2F302FB3B
:100490001C00303078541846491C0028F3D12346FC
:1004A0002A463046BDE8F04100F0FFB800000000E9
:1004B0002D0000002B000000200000002DE9F04777
:1004C0004FF0000A89460446C0F820A02046E168A3
:1004D0008847002876D0252806D0D4E90121904706
:1004E000206A401C2062F1E7E16820460025884729
:1004F000C4F81CA006460027C4F818A02A2E09D06C
:10050000304608F0A6FE38B304EB8708303EC8F842
:10051000186019E059F8041B204604EB870291612A
:10052000E1688847012F064618D1E069002820DAE3
:1005300025F020051DE0D8F8180000EB800006EB40
:1005400040003038C8F818002046E1688847064661
:1005500008F07FFE0028EED1012F0AD02E2E08D100
:100560002046E16888477F1C0646022F45F020059B
:10057000C4DBA069002803DA404245F00105A06110
:10058000E80701D025F01005B6B1A6F14100192801
:1005900002D8203645F400654A463146204625609B
:1005A0004D46FFF761FE58B1012806D0ED1D25F03C
:1005B000070000F1080989E704E005F1040985E76F
:1005C00030468AE7206ABDE8F08740EA0103024628
:1005D00030B59B0710D14FF0013400E008C208C9C4
:1005E0001D1B9D4315EAC41FF8D013F0FF0102F84C
:1005F000011B0DD01B0AF8E711F8013B002B02F894
:10060000013B05D011F8013B002B02F8013BF3D16F
:1006100030BD4FF000020429C0F0128010F0030C2E
:1006200000F01B80CCF1040CBCF1020F18BF00F8E5
:10063000012BA8BF20F8022BA1EB0C0100F00DB894
:100640005FEAC17C24BF00F8012B00F8012B48BFF2
:1006500000F8012B70474FF0000200B51346944696
:100660009646203922BFA0E80C50A0E80C50B1F10A
:100670002001BFF4F7AF090728BFA0E80C5048BF1E
:100680000CC05DF804EB890028BF40F8042B08BFBC
:10069000704748BF20F8022B11F0804F18BF00F8B8
:1006A000012B70477047704770472DE9F0470D46A2
:1006B00099469246044600F124080168880604D54C
:1006C000E06921F01001216000E00120A84201DD75
:1006D000471B00E00027A1697A1902EB0900081AFC
:1006E000A0612078C00602D42046FFF783FE0026D2
:1006F00008E0D4E901211AF806009047206A401C5E
:10070000761C20624E45F4DB2078C0060AD52046D0
:10071000FFF770FE06E0D4E9012130209047206AFF
:10072000401C2062381EA7F10107F4DC07E0D4E981
:10073000012118F805009047206A401C2062281EFD
:10074000A5F10105F3DC2046FFF76AFE20780006DC
:1007500002D50220BDE8F0870120FBE701694A1CB1
:1007600002610878704700B58FB0CDE901310021F2
:10077000059105497944CDE9031011466846FFF714
:100780009DFE0FB000BD0000E5FFFFFF0A6802F804
:10079000010B0A607047754600F02CF8AE46050064
:1007A0006946534620F00700854618B020B5FFF78C
:1007B00083FDBDE820404FF000064FF000074FF0EA
:1007C00000084FF0000BAC46ACE8C009ACE8C0092B
:1007D000ACE8C009ACE8C00921F007018D467047BC
:1007E00010B50446AFF300802046BDE81040FFF787
:1007F0004FBD0000004870475800002001491820F4
:10080000ABBEFEE7260002007047000000000000BB
:100810002DE9F04381B040F2B80440F61451C2F221
:1008200000043422C2F200018046276807FB02114F
:100830004FF44032886C4D6E0238B0FA80F04009B7
:100840004000C4E9082020464BF20002D1E9179687
:10085000C4F2020240F81C2F0021A16201F008F945
:1008600068B91C343946204601F012F838B92046E0
:1008700041464A463346009501F036FA10B101B0C0
:10088000BDE8F0830A21204601B0BDE8F04301F045
:1008900047B900000000000040F274200821C2F2B5
:1008A00000000160C02141610521C1614FF4803128
:1008B000C16202F01DBB00002DE9F04F86B040F28E
:1008C000B80EC2F2000EDEF8003003EB43030EEB6D
:1008D0008303DF68FE880396002E334600F08E8087
:1008E000BB88002B00F08A80039E3C68203ADF1D05
:1008F000724307F0F806FD08F61A02FB054753FAA3
:1009000086F20026013A0092CDE901750AE000BFA7
:10091000049E039901368E42059901F10101DDE93A
:1009200001756BD006FB05F2012D0496BC5C0FD05F
:1009300006FB0572022D03D12502012705E000BF49
:1009400057783F0247EA04450227D25D45EA020490
:100950008AB240F614550026DDF80080C2F2000588
:1009600005910DE0DAF86010D9F82470514311FABE
:100970008CF147F821B00136A8F10108B342C7D085
:10098000DEF80070342106EB000C07FB015A07EB80
:10099000470724FA08F10AF13809C9070EEB87075F
:1009A000DAF848100ED00229D7F804B0DAD1DAF814
:1009B0006010D9F82470514311FA8CF127F811B066
:1009C000D9E700BF0229B9680AD1DAF86050D9F82E
:1009D0002470554315FA8CF527F8151009E000BF6F
:1009E000DAF86070D9F82450574317FA8CF745F8B5
:1009F000271040F61455C2F20005BCE706B0BDE86A
:100A0000F08F00000000000010B540F6145042F2D4
:100A10000004C2F20000C4F20204012200688169ED
:100A200041F0010181614FF48051204601F0D4FC76
:100A300004F5006008210122BDE8104001F0CCBCA3
:100A40002DE9F04F81B01478894600218CB100BFA8
:100A500057187E7846B1BE7846B1FE7846B13F79E8
:100A60000431002FF4D104E0013102E0023100E052
:100A7000033140F2B80A40F61458C2F2000A342595
:100A8000C2F20008022BDAF8007007EB470607FBFA
:100A900005870AEB8606F6683F6EB688B7FBF6F563
:100AA00008D0012B03D1691A714300EB51002CB916
:100AB0002AE000BF691A7143081A2CB3B9B2B142D7
:100AC00022D307B2551E00264FF0340B012FD8BF9A
:100AD000012700BFB8B24946E2B2FFF7EDFEAC789D
:100AE00094B1DAF800000136013500EB400100FB5B
:100AF0000B800AEB8101C968006E898801FB160032
:100B00000F4480B28842E5D201B0BDE8F08F00000A
:100B10002DE9F04F83B040F2B80640F61453C2F20C
:100B200000063427C2F200034FF0020A35688846F7
:100B300005FB07339F6CD3E9173B0193BB1EB3FA48
:100B400083F3074605EB450002924FEA53134FF437
:100B5000403206EB800008BF4FF0010A446830467F
:100B60005900C6E908214BF20001C4F2020140F825
:100B70001C1F0021B16200F07BFFA0B906F11C0927
:100B80002946484600F084FE68B90BFB08700199BD
:100B900000FA0AF042180120009048462146029BC4
:100BA00001F0A2F810B103B0BDE8F08F0A21484669
:100BB00003B0BDE8F04F00F0B3BF0000000000003C
:100BC00080B540F2B80340F6145CC2F20003C2F2F2
:100BD000000CD3F800E034230EFB03CE0EF1380CEA
:100BE000DEF84830022B09D1DEF8603003FB01004B
:100BF000DCF8241021F8102080BD00BFDEF8603042
:100C000003FB0100DCF8241041F8202080BD000027
:100C1000F0B581B01C4615460E460746FFF778FF33
:100C2000A0192A4681B23846FFF772FF384631468E
:100C3000224600F009F8E819314680B2224601B098
:100C4000BDE8F040AFF300802DE9F04F83B040F2F3
:100C5000B80740F61453C2F200073426C2F200036C
:100C600080463D684FF0020A8B4605FB063305EBD4
:100C700045009C6CD3E917360193A31EB3FA83F3A6
:100C800002924FEA53134FEA430108BF4FF0010AA3
:100C900007EB80024FF44030C7E9080138464BF2B9
:100CA0000001C4F20201546840F81C1F711EB962B1
:100CB00000F0DEFEA0B907F11C092946484600F005
:100CC000E7FD68B906FB0B800199012300FA0AF0E1
:100CD0004218029800904846214601F005F818B1E4
:100CE00003B0BDE8F08F00BF0A21484603B0BDE85D
:100CF000F04F00F015BF00002DE9F04F83B040F237
:100D0000B80540F61456C2F200053424C2F20006BB
:100D100083462F68029301914FF0020A07FB046695
:100D200007EB4700144605EB8000B16C0239B1FABD
:100D300081F1D6E9178946684FEA51104FEA400021
:100D40004FF44031C5E9081028464BF20001C4F2C7
:100D5000020108BF4FF0010A40F81C1FA9EB020175
:100D6000A96200F085FEA0B91C353946284600F07E
:100D70008FFD70B901983146234609FB00B000FA97
:100D80000AF000EB080202980090284600F0ACFF41
:100D900010B103B0BDE8F08F0A21284603B0BDE8CA
:100DA000F04F00F0BDBE000040F2B80040F6145114
:100DB000C2F200003422C2F20001006800FB0210FF
:100DC000006E70470000000040F2B80040F6145179
:100DD000C2F200003422C2F20001006800FB0210DF
:100DE000406E70470000000070B540F6145446F69F
:100DF0000005C2F2000428200021C4F20105606150
:100E00000920A0613520E0610B20206240F215200E
:100E1000606240F21B10A06240F23520E06240F2B6
:100E20001D10206320460026FFF736FD4FF4F070BA
:100E30004FF48871C4E918012046A68684F836600C
:100E4000C4E90056C4E90266266101F089FE30B9A2
:100E500040F614500021C2F2000000F065F840F6A0
:100E60001450C2F2000001F07FFE05F538404FF447
:100E70008051012201F0B0FA05F54040082101221D
:100E800001F0AAFA00F028F940F2B80040F21C0282
:100E9000C2F20000C2F20002016801EB410100EB66
:100EA00081010020CA6070BD70B58EB040F2B806F6
:100EB00040F61452C2F200063424C2F200020DF1D0
:100EC000080C33680A91FF2103FB042300240194DA
:100ED0000594CDE90614D3E918358CE83800ADF84F
:100EE00034404FF4C0618DF8364004460891072124
:100EF000099101A9104622460B930C9501F0F4FDCF
:100F000004EB44004FF07F424FF0FF3106EB8000CE
:100F1000426040F21C02C2F20002C0E902120EB0AE
:100F200070BD0000000000002DE9F04186B043F6DE
:100F3000300042F20005C4F20200C4F2020501AC26
:100F4000022641690E2741F080614161416901F04B
:100F5000806101910199016841F40001016001681B
:100F600001F4000101910199016841F01001016053
:100F7000016801F0100101910199016841F04001FF
:100F80000160016801F0400101910199016841F49B
:100F900080710160016801F480710191019901681B
:100FA00041F400710160016801F40071019101993F
:100FB000016841F480610160016801F48061019180
:100FC0000199016841F480710160016801F4807148
:100FD00001910199016841F4806101600068214636
:100FE00000F4806001900198102001900020CDE96C
:100FF0000306A5F580500296059701F011F9092026
:101000000590A5F5006021464FF48058CDE9018692
:1010100001F006F94FF446402146CDE90106284685
:10102000059701F0FDF84EF6FF702146CDE9010667
:1010300005F58060059701F0F3F8F7202146CDE92A
:10104000010605F500660597304601F0E9F82846E7
:101050002146CDF804800127029701F0E1F808202D
:101060002146CDE90107304601F0DAF806B0BDE8C7
:10107000F08100000000000040F2B801C2F200015F
:10108000086070470000000040F2B801C2F20001A1
:101090000A6802EB420201EB82018860704700009F
:1010A00040F2B801C2F200010A6802EB420201EB11
:1010B000820148607047000080B540F600004FF4A0
:1010C0000051C4F2020001F07FF9B0FA80F040094B
:1010D00080BD0000000000002DE9F04F81B040F21B
:1010E000141640F24010C2F20006CAF20000344664
:1010F00035464FF00408002744F8300F0720B06150
:101100000021C6E90780402070644FF48070B0640D
:101110004FF400604FF0020AC6E913704FF480509C
:1011200045F814AFC6E915072046C6F82CA0C6E955
:1011300009AAC6E90D77C6F83C804FF01009C6F839
:10114000409000F04DF82046294602F0B9FCB0FA74
:1011500080F035464009307000974FF0010B45F89C
:1011600004BF4FF6FF7220462946C6E9029B37614D
:1011700002F05AFD012001F013F84FF6FF722046ED
:101180002946C5F800A0C6E9029B376102F04CFD74
:101190000320286008204FF6FF72C6E903072046A7
:1011A0002946C6F8089002F03FFD4FF40870009001
:1011B000C5F800804FF6FF7200983061204629463E
:1011C000C6E9029B02F030FD40F20361204602F0C6
:1011D0000BFD307880F0010001B0BDE8F08F000019
:1011E00070B586B043F6300140F60006C4F2020145
:1011F000C4F2020601AD04468A680C2042F00102E6
:101200008A608A6802F001020192019A0A6842F437
:1012100080020A600A6802F480020192019A0A6858
:1012200042F004020A600A6802F004020192019A84
:101230000A6842F008020A600A6802F00802019295
:10124000019A0A6842F010020A600A6802F010026D
:101250000192019A0A6842F020020A600A6802F0CC
:1012600020020192019A0A6842F040020A600A686C
:1012700002F040020192019A0A6842F080020A607C
:10128000096801F080010191019901210391022176
:10129000029104912946059008200190304600F003
:1012A000BFFF4CF20370019006F58060294600F004
:1012B000B7FF4FF68370019006F50060294600F0F5
:1012C000AFFF4FF63F00019006F54060294600F061
:1012D000A7FF48F23310019006F58050294600F030
:1012E0009FFF2820019006F5A050294600F098FFA6
:1012F00040F2F8254FF40030C2F2000503212862C5
:101300000020C5E90A1046F2104168622863C4F261
:101310000201C5E900108021A9604FF40071E96065
:101320004FF4806129614FF4805169614FF480412D
:101330002563C5E906102846AC6300F059FD284630
:1013400000F082FE38200F21002201F055FD3820E8
:1013500001F042FD06B070BD7047000000000000C3
:1013600040F664710246C2F200010846114602F0DE
:1013700053BD00000000000080B540F66470C2F26A
:10138000000002F05DFD043818BF012080BD0000A0
:1013900080B500F00DF8012807D140F66470C2F264
:1013A0000000BDE8804002F0A3BE022080BD000026
:1013B00080B582B001208DF80700FFF77DFE10B9DF
:1013C00000208DF807009DF8070002B080BD0000E6
:1013D00080B582B094460A46014640F66470C2F277
:1013E00000000093634603F073F8002818BF012043
:1013F00002B080BD00000000704700000000000047
:1014000080B582B094460A46014640F66470C2F246
:1014100000000093634603F07FF9002818BF012005
:1014200002B080BD00000000704700000000000016
:101430002DE9F04F8FB040F2781A40F22C01C2F241
:10144000000AC2F20001804600259AF800000969EE
:10145000CDE902550195002818BF70208847002863
:1014600088F8000000F0AD804FF0000B0DF11A0479
:101470000DF11009002706E098F8000001370BF184
:10148000020B87426AD240F22C0004EB0B01C2F23D
:10149000000009EB0B0243699AF80000002818BF0E
:1014A000702098479AF8010060B109A834F8171025
:1014B00039F8174020F817100DF12E0020F81740CA
:1014C00007E000BF0DF12E0030F8174009A830F8F2
:1014D00017100AEB87039868DA69061B38BF261ACB
:1014E000551A38BF8D1AADB215FA86F6062E03D3FB
:1014F0000A4620469C60D9619AF80030012B08EB1F
:10150000470303D15C8070200BE000BFBAF80210E3
:101510004843000B5880BAF804005043C0F30F3121
:101520000020998101A90091394603AA02AB0DF16F
:101530001A0406F0B1FC08EB070001990329039A8D
:101540008275029A80F8202096D840F20122C900C4
:10155000C0F2030222FA01F1C1768DE79AF8000089
:1015600000210E910EA9002818BF702006F080FC03
:101570000E980125A0F11001392921D8DFE801F0EA
:101580001E2121212C212121262121212A21212135
:10159000212121212121212121212121212121213B
:1015A000212121212121212121212121212121212B
:1015B0002E21212121212121212800BF01200EE0FF
:1015C00068B128460FB0BDE8F08F00BF032006E0E9
:1015D000062004E0042002E0022000E005200025AF
:1015E000C8F8280028460FB0BDE8F08F00000000C2
:1015F000B0B540F2781440F22C05C2F20004C2F2F9
:10160000000560807020A180296888476968702083
:101610008847512808D140F201102080E9687020E5
:1016200088470020B0BD00BF0320B0BD000000000F
:10163000FEE700000000000040F6BC50C2F20000CF
:1016400000F072B90000000040F6FC50C2F2000049
:1016500000F016BC0000000040F65C60C2F2000022
:1016600000F00EBC00000000704700000000000009
:101670004FF4006000F0C8BDEFF3108072B600BFF9
:10168000FEE700000000000040F65003C2F2000335
:101690005A7A002A1CBF0120704780B593F809C010
:1016A0008646002003F80C005A7A03EB8202C2F847
:1016B00004E05A7A1A44107293F809C00CF101023E
:1016C0005A720CF130020A7042F63A72A1F8012007
:1016D000C87080BD000000000A68002A02681FD0A0
:1016E00022F4F842D1E9073C1A434B6A42EA0C0261
:1016F0001A430260426847F6FF739A43D1E9013CFE
:101700001A43CB6842EA0C02D1F810C01A434B6965
:1017100042EA0C0289691A43114341600020704774
:1017200047F6FF739A43D1E9013C1A43CB6842EA7A
:101730000C02D1F810C01A434B6942EA0C02D1F8EE
:1017400018C01A43CB6942EA0C02D1F820C01A43F0
:10175000496A42EA0C021143016000207047000010
:101760000246406943F6FE7320EA0303002043EA81
:10177000410151617047000010B5024600696FF3E6
:1017800015006FF01F04D1E900ECD1E9023140EA05
:101790000E0004EB431340EA0C000343002043EA2D
:1017A0004121116110BD00002DE9F041002A82683D
:1017B00036D040F6FF734FF20006CFF60F73CFF628
:1017C000FF761A40CB684F696FF00F0406EB0333C6
:1017D0000026CFF6F0761A4306EB07573A438260AD
:1017E000C2688E68D1E9003702F07042013B04EB19
:1017F00007176FF0FF040D6904EB062600241A4357
:10180000CFF6FF7489693A4304EB05450139324349
:101810002A4342EA0161C1600020BDE8F08100BFB7
:1018200001F1080602F0704CD1E900E278CE6FF0C9
:101830000F074FF2000807EB02126FF0FF0707EBEC
:101840000323AEF1010747EA0C07CFF6FF7840F219
:10185000000E3A4308EB0434CFF6FF7E00271A430C
:1018600089690EEB0545CFF6F077224307EB065367
:1018700001392A431A4342EA016181600020BDE830
:10188000F081000000000000704700000000000030
:1018900090F83820012A4FF0020240D0F0B500EB5A
:1018A000011480F839204FF6F07E04F1180CE56938
:1018B000276A626AA5F109031606022B38BF02F0F7
:1018C0007F46C0F2FC0E002946EA0744016844EA5C
:1018D00005040DD0CD69012B05EA0E0747EA040780
:1018E000CF61DCF800300B6111D820230CE000BF81
:1018F0004D6A022B05EA0E0747EA04074F62DCF83F
:1019000000308B6103D2282322F07F42CA5000228C
:10191000012180F8391080F83820BDE8F0401046E9
:10192000704700000000000070B50446006846687B
:101930000568F10718BF15F480717DD1B0061AD57E
:1019400015F4005017D020686169026822F4005233
:1019500002604FF020028260E06B40F00200E06322
:101960004FF0040084F839004FF0000084F838008C
:1019700009B12046884730071AD515F4006017D002
:1019800020686169026822F4006202604FF0080278
:101990008260E06B40F00400E0634FF0040084F8E4
:1019A00039004FF0000084F8380009B1204688471C
:1019B00070070CD515F4806009D02068016821F407
:1019C0008061016004218160204600F081F8B00749
:1019D00018D515F4007015D020682169026822F42A
:1019E000007202604FF002028260E06BE0634FF031
:1019F000010084F839004FF0000084F8380009B184
:101A000020468847F0062FD515F4805008BF70BDDA
:101A10002068016821F48051016010218160E06B31
:101A2000E063012084F83900002084F83800204663
:101A3000BDE87040FFF728BF016821F480710160A4
:101A4000E16B41F00101E16301218160042084F830
:101A5000390061690020002984F838003FF46EAF36
:101A6000204688476AE700BF70BD00000000000004
:101A700050B310B590F8391031B9002180F8381002
:101A8000044600F029F82046022180F8391090E839
:101A90000E100C6824F4403422430A604A6B22F092
:101AA00007021A434A630A6C43F6FF739A4342EAF9
:101AB0000C020A640021C163012280F83920BDE8CC
:101AC00010400846704700BF01207047000000002A
:101AD00070470000000000004BF200010068C4F2F3
:101AE0000201884218BF704780B582B043F63000CB
:101AF0000022C4F20200016841F4000101600068A4
:101B0000002100F40000019001985A2001F074F9BE
:101B10005A2002B0BDE8804001F05EB9000000002C
:101B200070B582B000220192026804460D4610682A
:101B3000C00757D000F058FC22685168890751D47B
:101B4000064650680190681C019838D010F0210FAB
:101B500038D1002D00F0BE8000F046FC801BA8426A
:101B600000F2BA802268506880073BD45068019028
:101B7000019810F0210FEFD024E000BF50688007DB
:101B800030D450680190019810F0210F1AD150689C
:101B9000800727D450680190019810F0210F11D1CF
:101BA000506880071ED450680190019810F0210FF2
:101BB00008D15068800715D450680190019810F042
:101BC000210FDBD00198800603D5E06B40F00200C6
:101BD000E0630198C00703D0E06B40F00100E063D0
:101BE000212021E0D069516A0843800644D500F0E5
:101BF000FBFB22685168C9063ED406465068019036
:101C0000681C019817D010F0290F51D001980007D7
:101C10003ED40198800642D40198C00703D0E06BFF
:101C200040F00100E063292090600120042127E0BA
:101C300050680190019810F0290FE7D15068C00654
:101C40001AD450680190019810F0290FDED1506825
:101C5000C00611D450680190019810F0290FD5D119
:101C60005068C00608D450680190019810F0290F00
:101C7000CCD15068C006DBD5122090600020012135
:101C800084F83910002184F8381002B070BD00BF0C
:101C9000E06B40F00400E06301988006BCD5E06B87
:101CA00040F00200E0630198C007B8D1BBE700BF75
:101CB00085B100BF00F098FB801BA8420CD82268B9
:101CC0005068C006D8D450680190019810F0290FD0
:101CD000F0D09BE700F088FBE06B032140F0200090
:101CE000E0630320CCE7000090F838C0BCF1010F9E
:101CF0004FF0020C64D0B0B54FF0010E80F838E020
:101D000080F839C0049CD0E900CE44EA0343BEF514
:101D1000403FDCF8445005F0404543EA0503CCF869
:101D20004430CCF83C2011D18368C8B2032B2BD8A7
:101D30000FF20A0202EB83053822DFE803F03503D5
:101D4000091300BF21F07F412EE000BF0C222BE0E1
:101D50004FF4FC624FF4784302EA511203EA112176
:101D60000DE000BF4FF478724FF4F84302EA91128D
:101D70004FF4004503EA51231A4405EA1141114486
:101D800041EAD0010FE000BFF0224FF4706302EA95
:101D900011224FF4704503EA11331A4405EA114148
:101DA000114441EA101138224CF80210DCF800000E
:101DB00040F00100CCF800004FF0000CBDE8B0404E
:101DC000604670470000000090F83510022909D1E4
:101DD000052180F835100068016821F001010160DB
:101DE00000207047802141650120704700000000FD
:101DF00030B190F83510022904D10220704700BF9D
:101E00000120704710B502684AF6AB2C02F0F803C7
:101E1000CAF6AA2CA3F110041168A4FB0C3C21F013
:101E20000101116001464FEA1C134AF6206C0020A4
:101E3000106050604FF0210E9060C0F6000CD06032
:101E40005F2C10614FF03F04C2F814E040F2FF3EF7
:101E500022EA0E021CF8033088BF0432C1E91623BF
:101E600004FA03F39360C1E90F00C1E91100C1E96D
:101E70001300486581F8350081F8340010BD00007A
:101E8000F0B581B00021009140F2280148F2B5156B
:101E9000C2F20001C1F64E3508220B68D0E9166186
:101EA0008A40A3FB053537683A420CD003681C68AA
:101EB000640708D51C6824F004041C60B260426DFD
:101EC00042F00102426501228A403A4208D003688A
:101ED0005B691B0604D5B260426D42F002024265A6
:101EE00004228A403A4208D003681B689B0704D545
:101EF000B260426D42F00402426510228A403A42CA
:101F000019D001680B681B0715D5B2600A68520327
:101F10000A6809D4D20509D40A6822F008020A60C6
:101F2000016C29B907E000BF110341D4016C11B164
:101F3000044688472046C26D202101FA02F33B4245
:101F400043D001680F68FF063FD5B36090F8353085
:101F5000052B0B681CD123F016030B604B6923F093
:101F600080034B61036C0BB9836C1BB10B6823F0CE
:101F700008030B603F219140B160012180F83510CA
:101F8000016D0022002980F8342054D158E000BFB0
:101F90005A030A6810D4D20512D40A6822F010023B
:101FA0000A60012180F83510002180F8341007E024
:101FB000816C0029BCD1BEE7110301D4416C00E063
:101FC000C16B11B1044688472046416DC1B3416DD4
:101FD000C9072ED0052180F835100168AA0A0B68C0
:101FE00023F001030B60009B0133009393421AD846
:101FF0000B68DB0717D0009B01330093934212D884
:102000000B68DB070FD0009B0133009393420AD883
:102010000B68DB0707D0009B01330093934202D883
:102020000B68DB07DFD1012180F83510002180F833
:102030003410C16C21B101B0BDE8F040084700BFC9
:1020400001B0F0BD0000000070B5044600F0CCF90E
:10205000E4B10546022084F835000021206884F8A8
:102060003410016821F00101016000BF2168086897
:10207000C0070DD000F0B8F9401B0528F6D903229F
:1020800020230320636584F8352070BD012070BDD6
:1020900048F23F0204F1040C0868CFF2100210402D
:1020A000A6699CE82C10104362690343206A2B4305
:1020B000E56943EA0C031A43636A2A43042B40EAA6
:1020C000020040EA06021DD1206BD4E90A5E40EA14
:1020D0000E00BEF1000F40EA02000860486920F0DF
:1020E000030040EA050040F0040C11D0B6F5005F93
:1020F00034D0002E44D1022D45D0012D3AD03DB927
:1021000041E000BF0A60486920F0070040EA030C84
:1021100001F0F8004AF6AB221038CAF6AA22A0FB5A
:10212000022340F2FF32C1F814C091434AF6206204
:102130001B09C0F600025F28D05C4FF03F0288BF49
:1021400004310023C4E9161002FA00F0886001226D
:102150000020636584F8352070BD00BF032DD7D8FB
:10216000012240230120DFE805F0030E030500BF34
:1021700088E700BFAEF1C070B0FA80F0400904E01B
:10218000032D04D3C4D1CEF300600028C0D00122B7
:1021900040230120636584F8352070BD00000000F5
:1021A000B0B5044600F020F940F214010546C2F231
:1021B0000001621C097818BF0C4400BF00F014F93C
:1021C000401BA042FAD3B0BDB0B540F2AC1441F20E
:1021D0003400C2F20004C2F200000025A5602570A0
:1021E00002F062FD41F22440E560C4F200000560A7
:1021F00040F65C00C2F20000A561BDE8B04004F00A
:10220000C7BC00000000000043F61441C4F2010105
:102210000A68024208BF70470860FFF7D5BF000098
:102220002DE9F04F83B000F13E430A2203F1FF771E
:1022300042F20043C4F202034FEAB726984243F643
:10224000004E08BF0922092E00F120030093C4F2BA
:10225000010E38BF4FEAB722002500274FF00008D3
:10226000019208E008F101080237B8F1100F05F1FA
:10227000040500F0A58001220E6802FA08F416EAAF
:102280000409EFD0D1F804C003220CF0030BBA40CC
:10229000ABF101066FEA020A012E0FD88268CE6800
:1022A00002EA0A02BE4032438260CCF30016426862
:1022B000A24306FA08F42243426005E0BBF1030F93
:1022C00002D14FF0030B20E0C2688C6802EA0A02D8
:1022D000BC40BBF1020F42EA0402C26015D16FF0AC
:1022E000030205F01C0402EA580B009A0F2352F86F
:1022F0000BC0A3400E692CEA0303A640334342F807
:102300000B30D1F804C00CF0030B02680BFA07F392
:1023100002EA0A021CF4403F42EA03020260A1D032
:1023200043F644034FF6084CC4F20203CFF6FF7C99
:102330000F241A6842F480421A601A6828F00303D6
:1023400002F4804202920EEB0302029B05F00C03A2
:1023500052F80C609C40A643019C04FA03F33343FB
:1023600042F80C30DEF808204B6842EA0906DC022D
:1023700058BF22EA090643F60C4C9C02C4F2010C39
:10238000CEF80860DCF8002042EA090658BF22EACD
:1023900009069C03CCF80060DEF8042042EA090636
:1023A00058BF22EA0906DB03CEF80460DEF80020FD
:1023B00042EA090658BF22EA0906CEF8006051E752
:1023C00003B0BDE8F08F00000069084018BF01208D
:1023D0007047000000000000002A08BF0904816166
:1023E000704700000000000041F29C10C2F20000A3
:1023F0000068704700000000B0B110B5242180F8DB
:102400004110016804460A6822F001020A6000F0E7
:1024100023FB0020606484F84100206384F84200BC
:1024200084F8400010BD00BF01207047000000008C
:1024300090F841007047000010B310B590F84110BB
:1024400031B9002180F84010044600F009FB204615
:10245000242180F8411090E81210C3680A68012B0B
:1024600022F001020A6024F070620A618A6822F494
:1024700000428A6006D14CF400428A600AE000BF44
:1024800001207047022B4CF404428A6002D14FF4C1
:1024900000624A604A6800F1100C42F0007242F497
:1024A00000424A60CA6822F40042CA609CE81C10DC
:1024B0001A4342EA0422CA60026A42EA0C020A6033
:1024C0000A6842F001020A6000214164202280F87B
:1024D0004120016380F84210002010BD0000000080
:1024E0002DE9F04F81B0044690F84100202807D133
:1024F0000A9E4EB10B9F3FB194F8400001280BD1CA
:10250000022001B0BDE8F08F4FF40070606401203C
:1025100001B0BDE8F08F00BF9B469246884601207F
:1025200084F84000FFF760FF216805468A691204BD
:102530000AD500BFFFF758FF401B192800F22E8173
:10254000216888690004F5D4222084F841004020E5
:1025500084F842005FFA8BF04FF000096FF39F2878
:10256000C4F84490666248EA0040678549F600076F
:10257000C4F83490CFF600474A68CDF800803A405E
:10258000DDF8308010442A4600F5005048602046AF
:10259000414602F045FE28B184F84090012001B088
:1025A000BDE8F08FBBF1010F20680AD04FEA1A2175
:1025B0008162204641462A4602F032FE0028EBD1D5
:1025C00020685FFA8AF181628169490613D4B8F103
:1025D000000F00F0B38018F1010121D18169490693
:1025E00009D4816949065CBF81695FEA416102D40F
:1025F00081694906F2D5618D40F2000AC0F2FF1AE6
:10260000B1F5807F12D350F8041F0AF5105301EA88
:102610000702FF2113E000BF206881694906EAD460
:10262000FFF7E2FE401B4045F6D989E0618D50F886
:10263000043F3B40CAB243EA02420AF59233009E8D
:102640001A43324308F10109FF2607F5806B026047
:10265000218511E0618D2185C9B250F8042F02EA6D
:102660000B0242EA01414FF00072009B11431943F3
:102670000160608D002873D020688169490711D4FA
:10268000B9F1000F3ED0B8F1000F00F0858000BF17
:10269000FFF7AAFE401B404500F280802068816958
:1026A0004907F5D5406A616A0870218D606A01307A
:1026B0006062481E2085618D01396185618D002928
:1026C000D7D00004D5D12068816909060ED4B9F1AC
:1026D000000F25D0B8F1000F5ED0FFF785FE401B3C
:1026E00040455BD8206881690906F6D5618DB1F552
:1026F000807FAFD32685524650F8041F01EA0B01B4
:10270000B3E700BF81694907CCD4816949075CBF41
:1027100081695FEA4171C5D481694907F2D5C1E792
:1027200081690906E2D4816909065CBF81695FEAB3
:102730000161DBD481690906F2D5D7E7FFF754FEC2
:10274000606C40F020006064202084F8410000208C
:1027500084F8420084F84090012001B0BDE8F08F79
:10276000204641462A4602F027FD00287FF4CFAEDE
:10277000206820214EF60003C161CFF60063426855
:102780001A40426084F84110002084F8420084F826
:10279000400001B0BDE8F08FFFF726FE606C40F00E
:1027A00020006064202084F84100002084F842006A
:1027B00084F84000012001B0BDE8F08F0000000067
:1027C0002DE9F04F81B0044690F84100202807D150
:1027D0000A9F4FB10B9D3DB194F8400001280BD1E9
:1027E000022001B0BDE8F08F4FF40070606401205A
:1027F00001B0BDE8F08F00BF89469846934601209E
:1028000084F84000FFF7F0FD216806468A6912044B
:102810000AD500BFFFF7E8FD801B192800F20C81E4
:10282000216888690004F5D4212084F84100402003
:1028300084F842005FFA88F04FF0000A6FF39F2996
:10284000C4F844A0676249F600476585CFF60047A3
:10285000C4F834A0A7F580634A6849EA00401A40EA
:102860000C9D1044324640F0807040F400504860A7
:102870002046294602F0D4FC30B184F840A0012063
:1028800001B0BDE8F08F00BFB8F1010F20680AD099
:102890004FEA1B21816220462946324602F0C0FCE5
:1028A0000028EAD120685FFA8BF18162816909060C
:1028B00011D4002D00F0AC80691C1FD1816909067C
:1028C00009D4816909065CBF81695FEA016102D4AC
:1028D00081690906F2D5618D40F20008C0F2FF1847
:1028E000B1F5807F10D350F8041F434601EA070278
:1028F000FF2112E0206881690906ECD4FFF774FD1E
:10290000801BA842F6D985E0618D50F8043F3B401A
:10291000CAB243EA02424FF000731A4305F1010ABA
:102920004FF0FF0B42EA09020260218511E000BF6F
:10293000618D2185C9B250F8042F3A4042EA014125
:102940004FF00072114341EA09010160608D0028D7
:1029500042D020462946324602F062FC00287FF42D
:1029600046AF616A206811F8012B82626162618D55
:1029700001396185218D01392185628D002AE5D0DB
:102980000904E3D1816909060DD4BAF1000F15D00D
:10299000002D4FD0FFF728FD801BA8424CD820689F
:1029A00081690906F6D5618DB1F5807FC0D3A4F8A1
:1029B00028B0424650F8041F3940C3E78169090630
:1029C000F1D4816909065CBF81695FEA0161EAD4DB
:1029D00081690906F2D5E6E720462946324602F02B
:1029E000EBFB00287FF403AF206820214EF60003A4
:1029F000C161CFF6006342681A40426084F841101A
:102A0000002084F8420084F8400001B0BDE8F08F57
:102A1000FFF7EAFC606C40F020006064202084F83E
:102A20004100002084F8420084F840A0012001B059
:102A3000BDE8F08FFFF7D8FC606C40F020006064C8
:102A4000202084F84100002084F8420084F84000EF
:102A5000012001B0BDE8F08F7047000000000000C9
:102A6000704700000000000040F2140041F29C1189
:102A7000C2F20000C2F2000100780A681044086047
:102A8000704700000000000080B5032000F0E4F96A
:102A90000F2000F005F800F083F9002080BD000051
:102AA00070B540F2140640F22801C2F20006C2F2EC
:102AB00000014FF47A73044632780968B3FBF2F2EE
:102AC000B1FBF2F1084601F043FF0F2C4FF0010576
:102AD00008D838B94FF0FF3000222146002500F019
:102AE0008BF97460284670BD90F8A030012B4FF030
:102AF000020331D02DE9F04134244FF0010880F871
:102B0000A08080F8A13002FB0403D1E900CED1E916
:102B10000267D1E90445C3E91245C3E91067C3E977
:102B20000ECED1E906CED1E90854D1E90A76C3E93F
:102B30001876C3E91654C3E914CE0F6B9F6604469A
:102B400002F05EFC20680023C0F8248084F8A18095
:102B500084F8A030BDE8F04118467047000000003E
:102B600090F8A1007047000000286DD010B590F8D3
:102B7000A11031B9002180F8A010044600F068F8D7
:102B80002046022180F8A110D0E9001CD0E90234CF
:102B90008A6922F070428A6143EA0C020369224387
:102BA0001A438B691A438A614FF600038A68CFF291
:102BB00000031A408A60D0E9052444EA02428C6886
:102BC00022438A60CA681A40CA60D0E9072444EAEE
:102BD0000242CC682243CA600A691A400A61D0E9FD
:102BE000092444EA02420C6922430A614A691A40F4
:102BF0004A61D0E90B2343EA02424B691A434A6116
:102C000090F8352090F83630CC6A04F07F44CC62DE
:102C10001B0490F8344043EA0222CB6A22441A4350
:102C2000CA624A6B42F006024A638A6942F00102B4
:102C30008A610021C0F8A410012280F8A120BDE81B
:102C400010400846704700BF012070470000000098
:102C50002DE9F041A8B0044602A800212791CDE952
:102C60002511CDE9231146F6000504308021C4F278
:102C70000105FDF7F0FC2068A84203D028B0BDE8AC
:102C8000F08100BF082002903220079001200C90B4
:102C900002A84FF00208CDE9088800F029F908B130
:102CA000FEF7EAFC43F6300023ACC4F20200002732
:102CB0000E26416941F080614161416901F0806106
:102CC00001910199016841F010010160016801F072
:102CD000100101910199016841F4007101600168DE
:102CE00001F4007101910199016841F48061016072
:102CF000016801F4806101910199016841F040018E
:102D00000160016801F0400101910199016841F4FD
:102D1000807101600068214600F480700190019884
:102D20001020CDE9230805F528402796CDE9257721
:102D3000FFF776FA4EF6FF702146CDE9230805F538
:102D40003C402796CDE92577FFF76AFAF720214620
:102D5000CDE9230805F540402796CDE92577FFF713
:102D60005FFA4FF480502146CDE9230809202790CF
:102D700005F53040CDE92577FFF752FA4FF446408C
:102D80002146CDE9230805F538402796CDE925777A
:102D9000FFF746FA28B0BDE8F0810000000000000F
:102DA00082B043F64000C4F20200016841F0805155
:102DB0000160016801F0805101910199416841F47D
:102DC00080414160406800F480400090009802B06B
:102DD0007047000000000000002848BF70471C2119
:102DE0004EF2001300F01F0201EAD000CEF2000301
:102DF00001219140C150704770B54EF60C5C4FF008
:102E0000FF36CEF2000C00F1604505F56445DCF8B4
:102E10000030C3F3022E8EF00703042B28BF0423D7
:102E2000BEF1030406FA03F321EA030100F00F03E5
:102E300038BF0024043B0028634406FA04F048BF6E
:102E400003F10C05A14022EA0000084300012870AC
:102E500070BD0000000000004EF60C514FF6FF035D
:102E6000CEF200010A681A4060F30A2242F0806044
:102E700040F0FD7008607047B0B582B043F6400086
:102E800047F20005C4F20200C4F20005016841F0F7
:102E900080510160006800F080500190019828681E
:102EA00040F480302860FFF79FFA04466868C0034A
:102EB00006D4FFF799FA001BB0F57A7FF6D910E037
:102EC000286840F400302860FFF78EFA044600BFFF
:102ED0006868800308D4FFF787FA001BB0F57A7F93
:102EE000F6D9032002B0B0BD002002B0B0BD000092
:102EF0002DE9F04782B0D0F800A043F690060446D2
:102F00005FEACA70C4F202061AD14FF000095FEA04
:102F10000A3028D556F8040CE16B20F44010B1F5C6
:102F2000801F40EA010046F8040CB1FA81F04FEA34
:102F3000501808BF4FF001095FEACA2018D429E0F1
:102F400056F8880C20F4000046F8880C606B56F8A0
:102F5000881C014346F8881CB0FA80F04FEA5019EB
:102F60005FEA0A30D6D44FF000085FEACA2011D5D4
:102F700056F8040C216C20F44000B1F5800F40EAB3
:102F8000010008BF4FF00109002908BF4FF00108F8
:102F900046F8040C5FEA8A6057465CD556F8500C38
:102FA00047F2000740F0805046F8500CC4F200078A
:102FB00056F8500C00F0805001900198386840F4A9
:102FC00080703860FFF710FA054600BF3868C0050A
:102FD00006D4FFF709FA401B6428F7D934E200BF92
:102FE00056F8200C10F440701BD0216B01F4407196
:102FF000884216D056F8200C56F8201C41F4803137
:1030000046F8201C56F8201C20F4407021F4803132
:1030100046F8201C46F8200C56F8200CC00740F05B
:1030200095814FF6FF432768206B56F8882CC0F631
:10303000FF7300F4407122F4F81203406FF31F3065
:10304000B1F5407F08BF1A4346F8882C56F8201C7B
:10305000084346F8200CF80628D4780434D4380401
:103060003AD4F80340D4B80346D478064CD4380692
:1030700052D4F80558D4B8055ED4780564D4380520
:103080006AD4F80470D4B80477D478027ED4B80235
:1030900000F18580780300F19180380200F197807B
:1030A0005FEACA1040F19D80AAE000BF56F8040C08
:1030B00020F0807046F8040CA06B56F8041C0843FE
:1030C00046F8040C7804CAD53068616E20F44030AC
:1030D000084330603804C4D53068A16E20F4402025
:1030E00008433060F803BED53068E16E20F440102C
:1030F00008433060B803B8D53068216F20F4400031
:10310000084330607806B2D53068616C20F0030067
:10311000084330603806ACD53068A16C20F00C0054
:1031200008433060F805A6D53068E16C20F0300027
:1031300008433060B805A0D53068216D20F0C0008C
:103140000843306078059AD53068616D20F440708E
:1031500008433060380594D53068A16D20F4406094
:1031600008433060F8048ED53068E16D20F440509B
:1031700008433060B8047FF588AF3068216E20F4D2
:1031800040400843306078027FF581AF3068A16F1E
:1031900020F0806008433060B8027FF57BAF306874
:1031A000E16F20F00060B1F1006F40EA010008BF5C
:1031B0004FF00108306078037FF56FAF3068616FC2
:1031C00020F040700843306038027FF569AF306806
:1031D000D4F8801020F08050084330605FEACA10B5
:1031E0000ED4B9F1010F0BD017F0007008D13807D9
:1031F0001AD4B8F1000F17D1002002B0BDE8F08753
:1032000056F8900C20F0806046F8900CFFF7ECF830
:10321000054600BF56F8900C000119D5FFF7E4F8F9
:10322000401B6428F6D90FE156F8900C20F080502E
:1032300046F8900CFFF7D8F8054600BF56F8900CFA
:10324000800015D5FFF7D0F8401B6428F6D9FBE0C5
:103250002068C10703D0616B002900F08B80010357
:1032600040F19C80E16BB1F5801F40F097809BE0BE
:103270002068010301D5E16B19B1C1021ED5216C93
:10328000E1B956F8081C56F8082C01F4403102F058
:10329000E042D4E905371144A26A41EA83116FF094
:1032A000FF0341EA076146F8081C56F8041C03EBCB
:1032B000022221F4F851114346F8041C810214D56E
:1032C000E16FB1F1006F10D156F8081C56F8082CC8
:1032D00001F0706102F0E0426369276A114441EA3B
:1032E000831141EA074146F8081C000718D556F833
:1032F000080C56F8081C00F0706001F44031626957
:103300000844E16940EA8210E36A40EA017046F845
:10331000080C56F8040C20F44030184346F8040C0E
:1033200056F8900C40F0805046F8900CFFF75CF88F
:10333000044600BF56F8900C80003FF55DAFFFF7E4
:1033400053F8001B6528F5D37EE000BFFFF74CF86B
:10335000054641F2883700BF56F8200C80073FF53C
:1033600060AEFFF741F8401BB8424FF00300F3D9BD
:103370006BE000BF56F80C1C56F80C2C01F44031E1
:1033800002F07062D4E90135114441EA831141EA47
:10339000057146F80C1C01033FF564AFC1021DD551
:1033A000216CB1F5800F19D156F80C1C56F80C2C75
:1033B00001F4403102F0E04263681144E26841EAFE
:1033C0008311656A41EA026146F80C1C56F8041C38
:1033D0006A1E21F01F01114346F8041CC10110D5DB
:1033E00056F80C1C56F80C2C01F0706102F0E0420B
:1033F00063682569114441EA831141EA054146F8B1
:103400000C1C80010CD56068A368D4E90321090471
:1034100041EA801040EA026040EA037046F80C0C72
:1034200056F8900C40F0806046F8900CFEF7DCFFF8
:10343000054600BF56F8900C00013FF5D8AEFEF7E8
:10344000D3FF401B6428F5D9032002B0BDE8F08704
:1034500000285DD02DE9F04143F608080446C4F287
:1034600002080D46D8F8F80300F00F0088420DD28C
:10347000D8F8F80320F00F002843C8F8F803D8F86C
:10348000F80300F00F00A84240F094802068810704
:1034900017D5410705D5D8F8001041F4E051C8F818
:1034A0000010010705D5D8F8001041F46041C8F8B4
:1034B0000010D8F80010A26821F0F0011143C8F8FC
:1034C0000010C00726D1D8F8F80300F00F00A8427A
:1034D0000CD9D8F8F80320F00F002843C8F8F803F7
:1034E000D8F8F80300F00F00A84263D12068410724
:1034F0001CD4000724D4D8F8000000F00C000828E1
:103500002DD0042878D147F64000C0F27D1077E036
:1035100001207047606858F8081C022842D0012832
:1035200046D189034AD40120BDE8F081D8F80010C3
:10353000E26821F4E0511143C8F800100007DAD521
:10354000D8F80000216920F4604040EAC100C8F8C2
:103550000000D8F8000000F00C000828D1D158F87D
:10356000042C58F8040C400247F6400058F8041C9C
:10357000C0F27D105CBF42F20040C0F2F400C1F323
:10358000881102F03F02A0FB01010023FCF7A6FE18
:1035900058F8041C0222C1F3014102EB4101B0FBC7
:1035A000F1F02DE0890109D40120BDE8F08100BFD0
:1035B000890703D40120BDE8F08100BFD8F80010CE
:1035C00021F003010843C8F80000FEF70DFF06468E
:1035D00041F28837D8F80000616800F00C00B0EBC9
:1035E000810F3FF470AFFEF7FFFE801BB842F1D9A8
:1035F0000320BDE8F08100BF42F20040C0F2F400B9
:10360000D8F8001049F27A22C0F60002C1F3031183
:10361000515C40F21802C2F20002C84040F2280198
:10362000C2F2000108601068FFF73AFA0020BDE816
:10363000F08100000000000040F2280043F608017D
:10364000C2F20000C4F2020149F28A22006809684D
:10365000C0F60002C1F38221515CC84070470000EF
:1036600040F2280043F60801C2F20000C4F2020151
:1036700049F28A2200680968C0F60002C1F34231AB
:10368000515CC8407047000010B543F60404C4F212
:103690000204606800F00C00082807D0042825D137
:1036A00047F64000C0F27D1010BD00BF22682068C0
:1036B000400247F640002168C0F27D105CBF42F234
:1036C0000040C0F2F400C1F3881102F03F02A0FBF9
:1036D00001010023FCF702FE21680222C1F301412F
:1036E00002EB4101B0FBF1F010BD00BF42F200401F
:1036F000C0F2F40010BD000000284FD02DE9F041C9
:1037000082B00446007843F60006C007C4F2020601
:103710000CD0B06800F00C00042840F07F803068C6
:10372000800303D56068002800F028812078800796
:103730001BD5B06810F00C0F09D0B06800F00C0079
:10374000082840F085807068400200F18180306870
:10375000800703D5E068012840F0108130682169B6
:1037600020F0F80040EAC10030602078000717D44C
:10377000207840072AD4A569002D00F0FB80B068AE
:1037800000F00C00082840F09D80012D706840F08A
:10379000CF80012002B0BDE8F08100BF012070475A
:1037A00060690028706F79D040F001007067FEF703
:1037B0001BFE0546706F8007DAD4FEF715FE401B2E
:1037C0000228F7D9032002B0BDE8F081306C5FEA2F
:1037D000C00808D4306C40F080503064306C00F089
:1037E00080500190019847F20007C4F20007386842
:1037F000C00545D4386840F480703860FEF7F4FDA9
:10380000054600BF3868C0053AD4FEF7EDFD401B01
:103810006428F7D9032002B0BDE8F081B06800F059
:103820000C00082803D1706840023FF578AF61684A
:103830003068002900F0F080B1F5A02F00F0E4809E
:10384000B1F5803F40F0FE8040F4803000E100BFE1
:10385000E0680028306857D040F001003060FEF783
:10386000C3FD0546306880073FF578AFFEF7BCFD25
:10387000401B0228F6D9032002B0BDE8F08100BF4A
:10388000A168306F002900F0858005297AD00129D0
:1038900040F0988040F001009AE000BF20F0010065
:1038A0007067FEF7A1FD0546706F80077FF560AF7A
:1038B000FEF79AFD401B0228F6D9032002B0BDE8AE
:1038C000F08100BF306820F080703060FEF78CFD22
:1038D000022D05460CD100BF3068800140F1CA803E
:1038E000FEF782FD401B02284FF00300F4D91CE0D4
:1038F000306880013ED5FEF777FD401B02284FF06F
:103900000300F5D911E000BF20F001003060FEF7A0
:103910006BFD0546306880077FF527AFFEF764FD35
:10392000401B02284FF00300F4D902B0BDE8F0813B
:1039300000F48001E269914220D100F03F01226A47
:1039400091421BD147F6C071626A0140B1EB821F00
:1039500014D1A16A4FF6FF72C903914300F44032BB
:10396000A1F580318A4209D1E16A00F07060B0EBC4
:10397000016F03D1002002B0BDE8F081012002B048
:10398000BDE8F08140F004003067306F40F0010086
:103990001EE000BF20F001003067306F20F004000F
:1039A0003067FEF721FD054641F28837306F80070A
:1039B00020D5FEF719FD401BB8424FF00300F5D9A2
:1039C000B3E700BF20F001003067306F20F0040043
:1039D0003067FEF709FD054641F28837306F8007F2
:1039E00008D4FEF701FD401BB842F7D9032002B00E
:1039F000BDE8F081B8F1000F3FF5BDAE306C20F0AE
:103A000080503064B7E600BF40F4802030603068FA
:103A100040F480301CE000BF20F48030306030681B
:103A200020F480203060FEF7DFFC0546306880031C
:103A30007FF57CAEFEF7D8FC401B64284FF00300F6
:103A4000F4D972E720F480303060306820F48020B0
:103A50003060FEF7C9FC0546306880033FF566AE6E
:103A6000FEF7C2FC401B6428F6D9032002B0BDE873
:103A7000F08100BF04F11C074FF6FF758FCFDB0309
:103A8000084323EA050140EA8210A1F5803140EAAB
:103A90000760084340F000507060306840F080706C
:103AA0003060FEF7A1FC0446306880013FF562AF4C
:103AB000FEF79AFC001B02284FF00300F4D934E70C
:103AC000E0B1B0B5044690F82C000D4628B90020AE
:103AD00084F82D00204600F013F8022084F82C0012
:103AE0002068211DFDF7F8FDD4E900022946FDF705
:103AF0005BFE012084F82C000020B0BD012070473F
:103B00002DE9F04387B040F258300026C2F20000A1
:103B10000696059601780296CDE9036600295ED1E6
:103B20000121017043F6380040F60004C4F202009F
:103B3000C4F2020402AD4FF0020801684FF003091D
:103B400041F0010101600068294600F00100019088
:103B500001984FF68370029004F50060CDE903866A
:103B6000CDF814900C270697FEF75AFB48F2331055
:103B70002946CDE9020804F580500697CDE904698D
:103B8000FEF74EFB4CF203702946CDE9020804F51E
:103B900080600697CDE90469FEF742FB4FF63F00CF
:103BA0002946CDE9020804F540600697CDE904698D
:103BB000FEF736FB28202946CDE9020804F5A0507F
:103BC0000697CDE90469FEF72BFB08202946CDE9CD
:103BD000020820460697CDE90469FEF721FB07B0ED
:103BE000BDE8F0830000000090F82C20022A01D1EB
:103BF0000220704790F82C20012A4FF001020ED1CC
:103C0000B0B5022280F82C20026804461046012537
:103C1000FDF7A6FD002284F82C50BDE8B040104608
:103C2000704700000000000090F82C30022B01D1FA
:103C30000220704703F0FB03012B4FF0010313D167
:103C400070B5022380F82C3003680546184601261B
:103C50000C46FDF791FD20680023022808BF0526C9
:103C600085F82C60BDE870401846704700000000E1
:103C7000FDF772BB0000000070470000000000006C
:103C800080B5D0F844C0D0E9193EBCF1010F4FEA2D
:103C900093720A70C3F383624A70C3F301628A703D
:103CA0004FEA1342CA704FEA13220A714B714FEA6E
:103CB0001E52CA80CEF303420A72CEF3C0324A7259
:103CC000CEF380328A72CEF34032CA72CEF3003223
:103CD0000A734FF000024A7338D0BCF1000F40F075
:103CE000898040F6FC72C36E02EA8E0242EA937249
:103CF0000A61C26EC2F3C2630B75C2F302634B75F5
:103D0000C2F342538B75C2F38243CB75C2F3C23305
:103D10000B76D1F810C00B7E0CF1010C03F00703F9
:103D200002330CFA03FCC0F854C00B7A03F00F0EF8
:103D3000012303FA0EF383654FEA532E0EFB0CF3B7
:103D4000C3654FF40073036613E000BF0EF03F023B
:103D5000B0F86E3043EA02420A610A694FF48063A8
:103D600003EB822242654FF400730366C0E916320A
:103D7000C26EC2F380334B76C2F3C6138B7602F069
:103D80007F02CA76026FD00F0877C2F3417048777E
:103D9000C2F382608877C2F38350C877C2F3405081
:103DA00081F82000C2F30043002081F8210081F84F
:103DB0002230C2F3C03381F82330C2F3803381F85C
:103DC0002430C2F3403381F82530C2F3003381F848
:103DD0002630C2F3812381F82730C2F3012381F812
:103DE0002830D2B2520881F82920012281F82A20F5
:103DF00080BD00BF016840F2FF52C0F240028A63FA
:103E0000816B41F080518163012180F834100120E1
:103E100080BD0000000000000246406C0860936C0A
:103E2000D06C4B60136DC1E90203506D0861906D59
:103E30004861D06D88610020126ECA617047000031
:103E400010B5016D04460068090401F011FE28B1A7
:103E5000A16B0843A063002010BD00BF20680021B3
:103E600001F086FFC0F3432010BD000000000000F9
:103E7000F0B581B004460068256B416B090405F07C
:103E800008012BD551B3E56A2DB3A66A01F090FF66
:103E90003060206801F08CFF7060206801F088FFBE
:103EA000B060206801F084FFF060206801F080FFBE
:103EB0003061206801F07CFF7061206801F078FFBC
:103EC000B061206801F074FFF06106F12000A5F1F7
:103ED0002001C4E90A0101B0F0BD00BF426BD20568
:103EE00040D4426B520463D5002961D0666A002E2B
:103EF000F1D0276A6D4639680091294601F05CFFD0
:103F0000786800902068294601F056FFB868009054
:103F10002068294601F050FFF86800902068294683
:103F200001F04AFF386900902068294601F044FFFB
:103F3000786900902068294601F03EFFB86900903A
:103F40002068294601F038FFF8690090206829466A
:103F5000203701F031FFA6F12000C4E9087001B05C
:103F6000F0BD00BF4FF480718163C16B4CF23A1217
:103F70009143C163C16A2A0721F00101C16251D492
:103F80002906A8D5A90608D501F0E6FD28B1A16B40
:103F90000843A0632046FFF76FFEA8079BD1206867
:103FA000C16A21F00801C162012084F8340057E0A1
:103FB000416B11F03A0F8ED0416B890756D4416B9B
:103FC00009075AD4416B89065ED4416BC90603D5F3
:103FD000A16B41F01001A16340F23A518163C16BC2
:103FE00021F49D71C16301F0B7FDA16B2A0740EA7E
:103FF0000100A06350D428067FF56DAF15F0300F97
:1040000056D0E06B45F63961C0F600010165FDF759
:10401000DBFE00283FF45FAFE06B01B0BDE8F0408D
:1040200001F00ABF15F0220F08D001F095FD28B16C
:10403000A16B0843A0632046FFF71EFE206840F2F4
:104040003A518163012084F83400A8074FF0000042
:10405000206305D0204601B0BDE8F04000F054BB1D
:10406000204601B0BDE8F04000F052BBA16B41F02A
:104070000201A163416B0907A4D5A16B41F00801BE
:10408000A163416B8906A0D5A16B41F02001A1631A
:10409000416BC9069CD49FE7012084F834000020BE
:1040A0002063204601B0BDE8F040FFF7E5BD00BF4A
:1040B000A80711D0206C45F6C951C0F60001016572
:1040C000FDF782FE00283FF406AF206C01B0BDE88A
:1040D000F04001F079BE00BF0020A063012184F808
:1040E00034102063204601B0BDE8F040FFF7C0BDAA
:1040F000E0B110B5044690F8340020B900202077D4
:10410000204600F01DF9032084F83400204600F01A
:104110000FF800284FF0010018BF10BD0021A16367
:10412000216384F83400002010BD00BF01207047D7
:1041300070B590B0044600687621029100210022FB
:10414000002300250095019501F016FE10B1012015
:1041500010B070BD2068416821F48071416001F0A9
:104160001FFE2068416841F4807141600220FEF723
:1041700017F80595206801F02BFB48B1012184F860
:104180003410A16B01430120A16310B070BD00BFCA
:10419000206801F051FB58B10020A064206801F0B4
:1041A00017FB0028EAD1A06C012803D00AE000BF69
:1041B0000120A0642068002101F0A6FA10B14FF0A0
:1041C0008050DBE705984FF6FE76B0421ED80025FA
:1041D000CCF210152068002101F096FA0028CDD10C
:1041E0002068294601F09CFA0028E8D120680021C7
:1041F00001F0BEFD0599013105910599B14202D842
:10420000B0F1FF3FE6DCC0F3807000E000200599CC
:104210004FF6FF72914203D34FF08070AEE700BFBC
:1042200060640120ADF81200206801F09DFDB8B374
:10423000606C032838D12068042101F099FD000D3D
:10424000E06405A92046FFF71BFD0028B7D1216DCA
:10425000002320680A0401F05FFB00287FF48EAF82
:1042600094E84F00D4E9055CCDE90065CDF808C0BD
:1042700001F082FD20684FF4007101F09DFA0028E2
:104280005AD0216840F2FF52C0F240028A63A16B0B
:104290000843A063012084F8340010B070BD00BF53
:1042A0004FF080606AE700BF206801F041FB002802
:1042B0007FF464AF2068002101F05AFD6067206838
:1042C000042101F055FDA0672068082101F050FD90
:1042D000E06720680C2101F04BFD616CC4F88000A0
:1042E0000329A8D020680DF1120101F0CDFB0028B0
:1042F0007FF444AF606C03289DD0BDF81210206895
:104300002165090401F064FB00287FF437AF2068C1
:10431000002101F02DFD60662068042101F028FDD8
:10432000A0662068082101F023FDE06620680C21CA
:1043300001F01EFD20677EE7002010B070BD000078
:104340002DE9F04FA7B0044601A842F60049043019
:10435000782100252695C4F201092595CDE923553C
:104360002295FCF778F92068484503D027B0BDE8CE
:10437000F08F00BF4FF42000019001A8CDE9205537
:10438000FEF7B6FD08B1FDF777F943F6300022AD30
:10439000C4F202004FF0020A00274FF003084169FF
:1043A0000C2641F400614161416901F40061009112
:1043B0000099016841F004010160016801F0040105
:1043C00000910099016841F00801016000682946E8
:1043D00000F00800009000984FF4F850229009F582
:1043E0005C40CDF88CA02497CDF894802696FDF7FC
:1043F00017FF09F5604029464FF0040B2696CDE9DA
:1044000022BACDE92478FDF70BFF40F6FC5546F2C1
:104410005840C2F20005C4F2020020264FF4804A40
:1044200028604FF00060C5E901074FF48060286103
:104430004FF48050686105F11C00EF60C5F818A0CA
:104440004FF4001980E8C0082846C5F828804FF4CA
:10445000000BC5F82CB0C5F83090FDF7F5FD08B19C
:10446000FDF70AF9256446F25840AC6340F65C65F6
:10447000C2F20005C4F2020005F1240148302860B0
:104480004FF0006068604020C5E902074FF480608B
:1044900028614FF48050C5F83090C5E9050A042022
:1044A00081E801092846C5E90767FDF7CDFD08B198
:1044B000FDF7E2F8312000210022E563AC63FEF74E
:1044C0009BFC3120FEF788FC27B0BDE8F08F000090
:1044D0002DE9F04786B01F4616460D460446FDF707
:1044E00083FF9DB1804694F83400012816D1002145
:1044F000A163B819E26D904218D9A06B40F000702A
:10450000A063012006B0BDE8F08700BFA06B40F0BB
:104510000060A063012006B0BDE8F087A06B40F00A
:104520000050A063012006B0BDE8F087032084F8A6
:1045300034002068626C012A4FF0FF32C1624FF0F4
:10454000020900924FEA472201924FF09002029234
:104550004FF0010ACDF80C9018BF7602049169461D
:10456000CDF814A001F020FB022F17D3C4F830902F
:104570003146206801F0B8F9C0B1216840F2FF521D
:10458000C0F240028A63A16B0843A063012084F853
:1045900034000021216306B0BDE8F087C4F830A0E4
:1045A0003146206801F0ACF90028E6D1DDF83890FA
:1045B000019E05E0FDF718FFA0EB0800484541D239
:1045C0002068416B11F4957F416B25D10904F1D529
:1045D000002EEFD001F0ECFB2860206801F0E8FB32
:1045E0006860206801F0E4FBA860206801F0E0FB4F
:1045F000E860206801F0DCFB2861206801F0D8FB4E
:104600006861206801F0D4FBA861206801F0D0FB4C
:10461000E8612035203ECDE7022F27D311F48071C9
:1046200024D0616C032921D001F096FA01460028BC
:1046300020681BD040F2FF52C0F240028263A06BA0
:104640000843A2E7206840F2FF51C0F240018163B5
:10465000A06B40F00040A063012084F834000020EB
:104660002063032006B0BDE8F08700BF416B090757
:1046700020D4416B890727D4416B89062ED420684A
:10468000416B890234D59EB301F092FB45F8040BCF
:10469000043EFDF7A9FEA0EB08004845EFD32068D3
:1046A00040F2FF51C0F240018163A06B40F0004036
:1046B0006BE700BF40F2FF51C0F240018163A06B85
:1046C00040F0080061E700BF40F2FF51C0F2400136
:1046D0008163A06B40F0020057E700BF40F2FF513A
:1046E000C0F240018163A06B40F020004DE700BFA5
:1046F00040F23A518163012084F83400002006B072
:10470000BDE8F08700000000FCF776BE0000000066
:10471000FCF78ABE000000002DE9F04788B09846FB
:1047200015460E460446FDF75FFE9EB1824694F89C
:104730003400012816D10021A16308EB0500E26DC9
:10474000904217D9A06B40F00070A063012008B020
:10475000BDE8F087A06B40F00060A063012008B0C6
:10476000BDE8F087A06B40F00050A063012008B0C6
:10477000BDE8F087032084F834002068626C4FF0B5
:10478000FF33012AC16202934FEA482303934FF09B
:1047900090030493059118BF6D02069101210791C2
:1047A00002A901F001FAB8F1020F17D3202020630B
:1047B0002068294601F0E0F9C0B1216840F2FF52BB
:1047C000C0F240028A63A16B0843A063012084F811
:1047D00034000021216308B0BDE8F0871020206379
:1047E0002068294601F0D4F90028E6D1DDF8409090
:1047F000039F01AD06E000BFFDF7F6FDA0EB0A0048
:1048000048455FD22068416B11F48D7F416B41D1E7
:104810004904F1D5002FEFD031780191727841EA47
:1048200002210191B27841EA02410191F27841EA14
:1048300002610191294601F0BFFA70680190206879
:10484000294601F0B9FAB06801902068294601F0C4
:10485000B3FAF06801902068294601F0ADFA30699A
:1048600001902068294601F0A7FA7069019020683C
:10487000294601F0A1FAB06901902068294601F0AB
:104880009BFAF069019020682946203601F094FADD
:10489000203FB1E7B8F1020F26D311F4807123D085
:1048A000616C032920D001F057F9014600282068E7
:1048B0001AD040F2FF52C0F240028263A06B08435C
:1048C00083E700BF206840F2FF51C0F240018163DE
:1048D000A06BA063012084F8340000202063032033
:1048E00008B0BDE8F08700BF416B090710D4416BE9
:1048F000890717D4416BC9061ED440F23A5181632F
:10490000012084F83400002008B0BDE8F08700BF23
:1049100040F2FF51C0F240018163A06B40F00800FB
:1049200053E700BF40F2FF51C0F240018163A06B2A
:1049300040F0020049E700BF40F2FF51C0F24001E1
:104940008163A06B40F010003FE700000000000012
:10495000411E0020B0EB116F02D00120704700BF54
:104960004EF21002F023CEF2000251604EF62351B7
:10497000CEF200010B7007219060116070470000BB
:1049800070470000000000007047000000000000B9
:10499000704700000000000090F83C20012A4FF012
:1049A00002025ED0B0B580F83D2040F2004C0268B3
:1049B000C4F2010C42F4806363455368D2F808E006
:1049C00002BF23F470034C68234341F2FF740D6867
:1049D000C4F2000423F07003A24243EA05035360CB
:1049E0000CDC40F2FF73C4F200039A4216DCB2F111
:1049F000804F29D040F2004318E000BF40F2FF335F
:104A0000C4F201039A4217DC41F60003C4F200032A
:104A10009A4219D00023C4F2010309E040F60003D2
:104A2000C4F200039A420FD040F60043C4F20003E0
:104A30009A4209D00DE000BF44F20003C4F2010322
:104A40009A4201D0624504D12EF08003896819434F
:104A500091600022012180F83D1080F83C20BDE8E3
:104A6000B04010467047000060B310B5044690F89F
:104A70003D0028B9002084F83C00204600F024F8CE
:104A8000022084F83D002068211D01F019FB01205F
:104A900084F8480084F83E0084F83F0084F8400021
:104AA00084F8410084F8420084F8430084F844000C
:104AB00084F8450084F8460084F8470084F83D00F7
:104AC000002010BD0120704710B582B041F20041B6
:104AD0000068C4F20001884214D041F20001C4F21F
:104AE0000001884228D143F640003624C4F2020077
:104AF000016841F010010160006800F010000190B1
:104B000001980DE043F640003724C4F2020001682A
:104B100041F020010160006800F020000090009842
:104B2000002100222046FEF767F9204602B0BDE8CA
:104B30001040FEF751B900BF02B010BD00000000E8
:104B400090F83D10012917D1022180F83D1001682D
:104B500041F2FF70C4F2000081420FDC40F2FF70AE
:104B6000C4F20000814217DCB1F1804F2CD040F23A
:104B70000040C4F2000025E00120704740F2FF3001
:104B8000C4F20100814213DC41F60000C4F20000CF
:104B9000814219D0002013E040F60000C4F200006A
:104BA000814211D040F60040C4F200000AE000BF8C
:104BB00044F20000C4F20100814205D040F20040FE
:104BC000C4F2010081420BD107228868C0F20102C1
:104BD00002400020062A18BFB2F5803F00D170477E
:104BE000086840F0010008600020704700000000E5
:104BF00090F83D1001291BD1022180F83D10016879
:104C000041F2FF70C4F200008142C86840F0010028
:104C1000C8600FDC40F2FF70C4F20000814217DC74
:104C2000B1F1804F2CD040F20040C4F2000025E0EA
:104C30000120704740F2FF30C4F20100814213DCD2
:104C400041F60000C4F20000814219D0002013E0B8
:104C500040F60000C4F20000814211D040F600404E
:104C6000C4F200000AE000BF44F20000C4F20100F8
:104C7000814205D040F20040C4F2010081420BD1D4
:104C800007228868C0F2010202400020062A18BFED
:104C9000B2F5803F00D17047086840F0010008601D
:104CA00000207047000000000146006841F2111327
:104CB000026A1A4204D00020012281F83D20704788
:104CC000026A40F244431A42F5D1026822F001021E
:104CD00002600020012281F83D20704700000000A2
:104CE000704700000000000010B50446006801692C
:104CF000890744BFC1685FEA81713FD401694907F0
:104D000044BFC1685FEA417144D40169090744BFE7
:104D1000C1685FEA01714BD40169C90644BFC1682B
:104D20005FEAC16150D40169C9071CBFC1685FEA6D
:104D3000C17157D10169090644BFC1685FEA0161C9
:104D400058D40169C90544BFC1685FEA016159D4FB
:104D50000169490644BFC1685FEA41615AD40169EB
:104D6000890646BFC1685FEA816110BD6FF020010E
:104D700001612046BDE81040FFF70ABE6FF0020156
:104D8000016101212177806980074BD02046FFF720
:104D9000A7FF4DE06FF004010161022121778069D6
:104DA00010F4407F48D02046FFF79AFF4AE000BF4A
:104DB0006FF00801016104212177C069800745D0A7
:104DC0002046FFF78DFF47E06FF0100101610821D9
:104DD0002177C06910F4407F42D02046FFF780FF62
:104DE00044E000BF6FF001010161204600F04CF883
:104DF00020689FE76FF0800101612046FFF7C4FD46
:104E000020689EE76FF4807101612046FFF7B8FDCE
:104E100020689DE76FF040010161204600F05CF8DA
:104E200020689CE7204600F027F8204600F028F88C
:104E300000202077206861E7204600F01DF820461A
:104E400000F01EF80020207720685EE7204600F082
:104E500013F8204600F014F80020207720685BE764
:104E6000204600F009F8204600F00AF800202077DC
:104E7000206858E7000000007047000000000000B4
:104E8000704700000000000040F6E871C2F2000127
:104E9000884240F2AC11C2F2000111D10A69012A24
:104EA0000ED010B540F6E8700024C2F200004C614C
:104EB000FFF7FAFE41F22400C4F20000046010BDC6
:104EC00041F23402C2F20002904218BF7047C86833
:104ED0000130C8607047000070470000000000000B
:104EE000C0B110B582B00446C06F28B9002084F864
:104EF0007800204600F048F82420E0672068016828
:104F000021F001010160204601F03EFA20B10120AC
:104F100002B010BD01207047606A10B1204601F058
:104F2000C3F92068416821F490414160816821F013
:104F30002A018160016841F0010101600020C4F88C
:104F40008400FDF751FA2168096809070ED5034668
:104F50004FF4001100226FF07E400090204601F0D7
:104F600033FB18B1032002B010BD00BF2020E06762
:104F7000C4F8800000202066606684F8780002B0E3
:104F800010BD0000000000002DE9F041A8B004466B
:104F900002A800212791CDE92511CDE9231141F285
:104FA000000504308021C4F20105FBF754FB2068A2
:104FB000A84203D028B0BDE8F08100BF4020029095
:104FC00002A8FDF795FF08B1FCF756FB43F6300049
:104FD00023ACC4F202004FF0020800270726416903
:104FE00041F010014161416901F010010191019905
:104FF000016841F002010160016801F002010191C4
:105000000199016841F0010101600068214600F04A
:105010000100019001988020239005F57440CDF89F
:105020009080CDE925772796FDF7FAF84FF40070C8
:105030002146CDE9230805F570402796CDE925776F
:10504000FDF7EEF828B0BDE8F08100000000000098
:10505000FEE700000000000070B5044600688369A8
:10506000DB0603D40021002269E000BF0E461021B8
:10507000C161816989065ED4711C52D0154636BB68
:10508000FDF7B2F92068426894F8421083691B0466
:105090000CD512F4804209D1202907D0416841F48F
:1050A00080414160FDF7A0F9054600BF2068816995
:1050B000890605D4FDF798F9401B1A28F6D328E095
:1050C00081698906DCD536E08169890633D4FDF72C
:1050D0008BF9401BB0422068F6D9426894F8421020
:1050E00083691B040CD512F4804209D1202907D012
:1050F000416841F480414160FDF776F9054600BF03
:10510000206881698906DFD4FDF76EF9401B1A28F3
:10511000F6D3206801228169242110E08169890683
:1051200009D48169890606D4816989065CBF8169D1
:105130005FEA8161F2D52021C161012204218369E6
:10514000DE0505D541F001014FF48072C2610122F4
:105150005E0505D49B050AD472B9002070BD00BF5E
:1051600041F008019A054FF48062C26104D541F014
:1051700002014FF40072C2618269920701D50022D8
:1051800082628269D20703D1826942F001028261A0
:105190004EF600034268CFF600631A404260606C2E
:1051A00008436064202084F84100002084F8420015
:1051B00084F84000012070BD70B51546044689B1E1
:1051C0000E4600BF20688069800617D4204631460D
:1051D0002A46FFF741FF78B9FDF706F9401BB042B8
:1051E000F0D90FE020688069800607D400212046AE
:1051F0002A46FFF731FF18B1012070BD002070BDB5
:10520000FDF7F2F8606C40F020006064202084F824
:105210004100002084F8420084F84000012070BD65
:1052200070B5044600688069800710D415460E46A4
:1052300011B3701C17D100BF4FF0FF3120462A4632
:10524000FFF70AFFF0B9206880698007F4D50020D5
:1052500070BD00BFFDF7C8F8401BB04216D82068EB
:1052600080698007F3D4204631462A46FFF7F4FED2
:105270000028EFD006E000BF002120462A46FFF7B5
:10528000EBFE08B1012070BDFDF7AEF8606C40F098
:1052900020006064202084F84100002084F842004F
:1052A00084F84000012070BDF0B587B00446FDF7DA
:1052B000BFF808B107B0F0BD40F6C04140F200456C
:1052C000C2F20001C4F202058C4203D0A5F5D83029
:1052D000206002E0A5F5D430086042F2327043F657
:1052E0003007C4F29100606000208C42C4F20207D3
:1052F000A0604FF001026061C4E90320E061206218
:105300002ED0396802AE41F002013960396801F0EF
:105310000201029102994FF4807102911221CDE9AC
:105320000310022005900420069028463146FCF721
:1053300077FF4FF40070029028463146FCF770FF6B
:105340003869202540F40010386138691F2600F4C0
:105350000010019001986FF400104FF400112EE03E
:10536000396805F5C05541F080013960396802AEF1
:1053700001F0800102910299802102911221CDE970
:105380000310022005900420069028463146FCF7C1
:1053900047FF4FF48070029028463146FCF740FFEB
:1053A0003869492540F4000038613869482600F41E
:1053B0000000019001986FF400004FF4000157F8CD
:1053C000102C114347F8101C57F8101C00220840FD
:1053D00047F8100C0F213046FDF70EFD3046FDF763
:1053E000FBFC0F2100222846FDF706FD2846FDF7AD
:1053F000F3FC2046FDF720F807B0F0BD00000000E8
:10540000F0B500680027D1E900CE00EBC212C0F66B
:10541000FF77D1E90234C568D2F8886006F4704697
:10542000C2F88860C6683D4005EB0E45C6F30B46E2
:10543000664401363543C2F88850C568D2F88C609E
:105440006FF3DF2506F47046C2F88C602C44C06808
:105450006FF3DF201844013040EA0440C2F88C00AA
:10546000D2F8940020F00700C2F894000869C2F84E
:10547000940091F83230072891F831404FEA034305
:105480008D69D2F89C604FF00006C2F89C6043EA38
:10549000042391F8307043EA056340F207743B44FB
:1054A000C2F89C30D2F8983023F0FF03C2F898304D
:1054B0004B69C2F89830D2F8A03023EA0403C2F84E
:1054C000A030D1E9073443EA0403C2F8A03002F166
:1054D0008403D2F8AC40C2F8AC604C6AC2F8AC406D
:1054E00006D84AF60062C0F6000252F8200000E03A
:1054F0000120DA6AAEEB0C0702F0E022DA62D1E9B1
:105500000A1241437843033040EA0140D862186BE5
:1055100040F2FF71884318631A63186840F0010075
:105520001860F0BD0000000080B54AF6CC5040F293
:105530008271C0F60000C2F20001FCF7A5F841F24A
:105540009811C2F20001087080BD00000000000048
:10555000FEE7000000000000FEE700000000000081
:1055600070470000000000002DE9F04F83B00546B1
:10557000FBF71AFCFBF728FC044640F68C204AF6A1
:105580002A61C2F20000C0F60001012201F080FB96
:1055900040F2AC160122C2F200062946707040F6B5
:1055A0005C00C2F2000001F0C7FB0028707040F000
:1055B000998040F2823706F11C0540F65C00C2F289
:1055C0000007C2F20000362239462B4601F020FEC9
:1055D0000028707040F08680F87C397D7A7DBB7C35
:1055E0000002D7F8228040EA01400026D9B240EA02
:1055F0000260084401909807D7F8160000903BD04D
:1056000040F65C0A0DF1090BC2F2000A00274FF0C8
:10561000000918E09DF80B00BDF8091041EA0040B0
:10562000A11B89B240F07F42B8B2FBF7C9FA09F179
:10563000010940F65C0AC14507F10107C2F2000A00
:105640000DF1090B4ED80322504659462B4601F066
:10565000DFFD01988742DDD10322504659462B4693
:105660006F4601F0D5FDBD460136A6421CBF00982D
:10567000864231D00027CDE740F65C0B0DF1090AD8
:10568000C2F2000B4FF00009002712E09DF80B005A
:10569000BDF8091041EA0040A11B89B240F07F42E9
:1056A0001FFA89F0FBF78CFA013709F10109474528
:1056B00018D80322584651462B4601F0A9FD0198FF
:1056C0008145E3D10136A6421CBF0098864203D033
:1056D0004FF00009DAE700BF40F65C00C2F20000BC
:1056E00001F056FA41F23400C2F20000FFF728FA46
:1056F00003B0BDE8F08F000040F66470C2F2000015
:10570000FEF7B6BB00000000816040F2774CC36832
:1057100037216CF30B0341F28832C36000F05CBAAE
:1057200041F0004140F2694241F480118160C1685A
:1057300062F30B01C16040F2280144F6D352C2F279
:105740000001C1F262020968A1FB0212510A41F292
:10575000883251436FF00302514000BF043125D01D
:10576000426B12F0450F02D012F4006214D0426B6B
:1057700012F0450F02D012F400620DD0426B12F00D
:10578000450F02D012F4006206D0426B12F0450FB2
:10579000E4D012F40062E1D1416B042211F0040163
:1057A00008BFC52282630846704700BF4FF0004023
:1057B000704700000000000081604FF48A6CC368ED
:1057C00010216CF30B0341F28832C36000F004BA7D
:1057D00000218160C1684FF4806262F30B01C160F7
:1057E00040F2280144F6D352C2F20001C1F2620233
:1057F0000968A1FB0212510A41F2883251436FF04D
:1058000003025140043111D0426B120609D4426B9D
:1058100012065CBF426B5FEA026202D4426B120660
:10582000F0D5C52181630020704700BF4FF00040D4
:1058300070470000000000004FF4D5718160C1681E
:105840004FF4896262F30B01C16040F2280144F613
:10585000D352C2F20001C1F262020968A1FB021236
:10586000510A41F2883251436FF00302514000BFA8
:1058700004312DD0426B12F0450F02D012F40062B9
:1058800014D0426B12F0450F02D012F400620DD01A
:10589000426B12F0450F02D012F4006206D0426B48
:1058A00012F0450FE4D012F40062E1D1416B4907D8
:1058B0000AD4416BC9070FD1416B49064FF0000173
:1058C0000DD540220AE000BF0422042106E000BFFB
:1058D0004FF00040704700BF01220121826308465B
:1058E0007047000000000000816040F2524CC36825
:1058F00012216CF30B0341F28832C36000F06CB9E3
:10590000816040F2514CC36811216CF30B0341F2EA
:105910008832C36000F060B9826040F2474CC368CF
:1059200007216CF30B0341F28832C36000F054B9D5
:1059300000218160C16840F2C24262F30B01C16084
:1059400040F2280144F6D352C2F20001C1F26202D1
:105950000968A1FB0212510A41F2883251436FF0EB
:1059600003025140043129D0426B12F0450F02D09E
:1059700012F4006214D0426B12F0450F02D012F400
:1059800000620DD0426B12F0450F02D012F400629B
:1059900006D0426B12F0450FE4D012F40062E1D160
:1059A000416B490706D4416BC9070BD1C5218163FF
:1059B0000020704704218163042070474FF00040AD
:1059C000704700BF01218163012070470000000083
:1059D000816040F2C942C16862F30B01C16040F2CC
:1059E000280144F6D352C2F20001C1F262020968F2
:1059F000A1FB0212510A41F2883251436FF00302B7
:105A0000514000BF043129D0426B12F0450F02D043
:105A100012F4006214D0426B12F0450F02D012F45F
:105A200000620DD0426B12F0450F02D012F40062FA
:105A300006D0426B12F0450FE4D012F40062E1D1BF
:105A4000416B490706D4416BC9070BD1C52181635E
:105A50000020704704218163042070474FF000400C
:105A6000704700BF012181630120704700000000E2
:105A7000816040F24D4CC3680D216CF30B0341F281
:105A80008832C36000F0A8B800228260C26840F289
:105A9000434363F30B02C26040F2280244F6D3533F
:105AA000C2F20002C1F262031268A2FB03235A0A87
:105AB00041F288335A436FF003035A40043239D01D
:105AC000436B13F0450F02D013F4006314D0436B03
:105AD00013F0450F02D013F400630DD0436B13F0A5
